:040000004EEF01F0CE
:08000800046ED8CF05F0E0CF33
:1000100006F00001E9CF0CF0EACF07F0E1CF08F0DD
:10002000E2CF09F0D9CF0AF0DACF0BF0F3CF12F01C
:10003000F4CF13F0FACF14F0F5CF15F0F6CF16F099
:10004000F7CF17F000C00EF001C00FF002C010F0A3
:1000500003C011F0F2A630EF00F0F2B06FEF00F045
:100060000EC000F00FC001F010C002F011C003F08C
:100070000CC0E9FF07C0EAFF078E08C0E1FF09C016
:10008000E2FF0AC0D9FF0BC0DAFF12C0F3FF13C0B2
:10009000F4FF14C0FAFF15C0F5FF16C0F6FF17C035
:1000A000F7FF045006C0E0FF05C0D8FF1000F76A54
:1000B000BE0FF66E000EF7220900F5501200001276
:1000C000091824062100F76AD60FF66E000EF722F3
:1000D0000900F55012000021062418091200936847
:1000E0008138006E0F0E00160050070B1C6E1D525B
:1000F00005E1036A1C50DBDF8C6E04D0036A1C50E0
:10010000E2DF8C6E81500000F29030EF00F0EA6A7E
:10011000200EE96EEF500DE0020E016E006A002E17
:10012000FED7012EFBD7970E006E002EFED7EF2EC6
:10013000F3D7FCEF01F08E0E006E20C001F01FC05F
:1001400002F0036A015209E102C001F0026A080EDE
:10015000005E015202E1006A08D0D89001BE04D0CE
:10016000023601360006F9D7019E1BEF02F01F5040
:10017000D8B471D0006E2350D8B46DD0002604E3FB
:10018000810E002668E204D07F0E005E64E363E027
:1001900020C027F02450271A208E248E22502602B9
:1001A000F4CF29F021502502F4CF03F0F3CF28F04B
:1001B0002602F3502926F4502822000E0322225052
:1001C0002502F3502926F4502822000E026A032249
:1001D000022220502602F3502826F4500322000E5B
:1001E000022220502502F3500326F4500222000E72
:1001F000016A012222502402F3502826F4500322DF
:10020000000E0222012221502402F3500326F45052
:100210000222000E012220502402F3500226F45044
:100220000122002A01BE05D02836033602360136E7
:100230000006000E28AE0AD0032A02220122015035
:1002400005E1025003E1035001E1002A27BE018EBF
:1002500027AE019E04D0006A016A026A036A2CEF8D
:1002600002F08E0E006E1F50005E20C002F021C012
:1002700001F0028E005209E0D890025202E10152D0
:1002800004E002320132002EF7D720AE05D0011E65
:10029000021E012AD8B4022A35EF02F0F86AD09E75
:1002A000078E1B6A1A6A1C6A1D6A1E6A0F01386B68
:1002B000396B3A6B3B6B3C6B776A786A796A0F0EE5
:1002C000926EF00E936E000E946E956EC150F00B10
:1002D000C16E010E386F000E3C6F396F3A6F3B6F85
:1002E000C050C00B0709C06EC08EC280000E016EE8
:1002F000C250830B0110C26E0D0E006E002EFED791
:10030000000E0609BA6EF90EBB6EF80E946E8B9451
:100310000C0EBD6EB76AB66A010EB96EFC0E020114
:100320009D17000E9D13BE6ABD50CF0BBD6E626A55
:10033000C00EF212928280A22DD01E5227E1010E31
:100340001E6EF286FF0E621293688138006E0F0EE9
:1003500000160050070B1C6E1D520BE1F80E946E38
:100360008B92946E8B80036A1C500001A0DE8C6E11
:1003700002011D2C0BD0F80E946E8B90946E8B8224
:10038000036A1C5000019FDE8C6E0201928280B2D3
:10039000FDD73BD0928480A410D0626A1E6AF80E0A
:1003A000946E8B90946E8B928C6ABE6ABD50CF0B0C
:1003B000BD6E928480B4FDD728D0928680A625D0C9
:1003C000626A1D5208E1010E1D6EF80E946E8B904C
:1003D000946E8B8206D01D6AF80E946E8B92946E8A
:1003E0008B801E6ABE6ABD50CF0BBD6E020E1F6EA3
:1003F000FA0E206E00018BD61F2E01D002D0020112
:10040000F7D7928680B6FDD702011E2C46D0C28255
:10041000420E006E002EFED70000C2B2FED7C2B25E
:10042000FED7C4CF1BF0C3CF1AF01BC020F01AC0F8
:100430001FF0000180D603C022F002C021F001C0ED
:1004400020F000C01FF0230E266EDB0E256E790E05
:10045000246E7E0E236E8BD603C022F002C021F0E4
:1004600001C020F000C01FF0FCD602C01BF001C08C
:100470001AF01BC002F01AC001F00232013202323F
:100480000132023201C0BEFF02320230300B006E78
:0E049000BD50CF0B0010BD6E02014CD7030013
:020000040030CA
:0E00000000E31E3C00BF81000FC00FE00F4068
:00000001FF
;PIC18F46K22
;CRC=69E8  CREATED="28-Jun-25 12:19"
